{
    "contractName": "DutchAuction",
    "abi": [
        {
            "inputs": [
                {
                    "internalType": "uint256",
                    "name": "_startingPrice",
                    "type": "uint256"
                },
                {
                    "internalType": "uint256",
                    "name": "_discountRate",
                    "type": "uint256"
                },
                {
                    "internalType": "address",
                    "name": "_nft",
                    "type": "address"
                },
                {
                    "internalType": "uint256",
                    "name": "_nftId",
                    "type": "uint256"
                }
            ],
            "stateMutability": "nonpayable",
            "type": "constructor"
        },
        {
            "inputs": [],
            "name": "buy",
            "outputs": [],
            "stateMutability": "payable",
            "type": "function"
        },
        {
            "inputs": [],
            "name": "discountRate",
            "outputs": [
                {
                    "internalType": "uint256",
                    "name": "",
                    "type": "uint256"
                }
            ],
            "stateMutability": "view",
            "type": "function"
        },
        {
            "inputs": [],
            "name": "expiresAt",
            "outputs": [
                {
                    "internalType": "uint256",
                    "name": "",
                    "type": "uint256"
                }
            ],
            "stateMutability": "view",
            "type": "function"
        },
        {
            "inputs": [],
            "name": "getPrice",
            "outputs": [
                {
                    "internalType": "uint256",
                    "name": "",
                    "type": "uint256"
                }
            ],
            "stateMutability": "view",
            "type": "function"
        },
        {
            "inputs": [],
            "name": "nft",
            "outputs": [
                {
                    "internalType": "contract IERC721",
                    "name": "",
                    "type": "address"
                }
            ],
            "stateMutability": "view",
            "type": "function"
        },
        {
            "inputs": [],
            "name": "nftId",
            "outputs": [
                {
                    "internalType": "uint256",
                    "name": "",
                    "type": "uint256"
                }
            ],
            "stateMutability": "view",
            "type": "function"
        },
        {
            "inputs": [],
            "name": "seller",
            "outputs": [
                {
                    "internalType": "address payable",
                    "name": "",
                    "type": "address"
                }
            ],
            "stateMutability": "view",
            "type": "function"
        },
        {
            "inputs": [],
            "name": "startAt",
            "outputs": [
                {
                    "internalType": "uint256",
                    "name": "",
                    "type": "uint256"
                }
            ],
            "stateMutability": "view",
            "type": "function"
        },
        {
            "inputs": [],
            "name": "startingPrice",
            "outputs": [
                {
                    "internalType": "uint256",
                    "name": "",
                    "type": "uint256"
                }
            ],
            "stateMutability": "view",
            "type": "function"
        }
    ],
    "bytecode": "61016060405234801561001157600080fd5b5060405161076b38038061076b833981016040819052610030916100d1565b3360c05260e0849052610100839052426101208190526100549062093a8090610133565b6101405261006562093a808461014b565b8410156100b85760405162461bcd60e51b815260206004820152601960248201527f5374617274696e6720707269636520697320746f6f206c6f7700000000000000604482015260640160405180910390fd5b6001600160a01b0390911660805260a0525061016a9050565b600080600080608085870312156100e757600080fd5b84516020860151604087015191955093506001600160a01b038116811461010d57600080fd5b6060959095015193969295505050565b634e487b7160e01b600052601160045260246000fd5b600082198211156101465761014661011d565b500190565b60008160001904831182151516156101655761016561011d565b500290565b60805160a05160c05160e0516101005161012051610140516105716101fa6000396000818161012201526102d10152600081816101b7015261024901526000818161021f01526102780152600081816101eb01526102a4015260008181609d015281816103ce01526104c501526000818161018301526103fc01526000818160ee015261042201526105716000f3fe6080604052600436106100865760003560e01c8063a6f2ae3a11610059578063a6f2ae3a14610167578063c6bc518214610171578063c7446565146101a5578063d6fbf202146101d9578063e6c0e6d51461020d57600080fd5b806308551a531461008b57806347ccca02146100dc5780638622a6891461011057806398d5fdca14610152575b600080fd5b34801561009757600080fd5b506100bf7f000000000000000000000000000000000000000000000000000000000000000081565b6040516001600160a01b0390911681526020015b60405180910390f35b3480156100e857600080fd5b506100bf7f000000000000000000000000000000000000000000000000000000000000000081565b34801561011c57600080fd5b506101447f000000000000000000000000000000000000000000000000000000000000000081565b6040519081526020016100d3565b34801561015e57600080fd5b50610144610241565b61016f6102cf565b005b34801561017d57600080fd5b506101447f000000000000000000000000000000000000000000000000000000000000000081565b3480156101b157600080fd5b506101447f000000000000000000000000000000000000000000000000000000000000000081565b3480156101e557600080fd5b506101447f000000000000000000000000000000000000000000000000000000000000000081565b34801561021957600080fd5b506101447f000000000000000000000000000000000000000000000000000000000000000081565b60008061026e7f000000000000000000000000000000000000000000000000000000000000000042610505565b9050600061029c827f000000000000000000000000000000000000000000000000000000000000000061051c565b90506102c8817f0000000000000000000000000000000000000000000000000000000000000000610505565b9250505090565b7f0000000000000000000000000000000000000000000000000000000000000000421061033c5760405162461bcd60e51b8152602060048201526016602482015275151a1a5cc8185d58dd1a5bdb881a185cc8195b99195960521b60448201526064015b60405180910390fd5b6000610346610241565b9050803410156103b75760405162461bcd60e51b815260206004820152603660248201527f54686520616d6f756e74206f66204554482073656e74206973206c65737320746044820152753430b7103a343290383934b1b29037b3103a37b5b2b760511b6064820152608401610333565b6040516323b872dd60e01b81526001600160a01b037f0000000000000000000000000000000000000000000000000000000000000000811660048301523360248301527f000000000000000000000000000000000000000000000000000000000000000060448301527f000000000000000000000000000000000000000000000000000000000000000016906323b872dd90606401600060405180830381600087803b15801561046657600080fd5b505af115801561047a573d6000803e3d6000fd5b505050506000813461048c9190610505565b905080156104c357604051339082156108fc029083906000818181858888f193505050501580156104c1573d6000803e3d6000fd5b505b7f00000000000000000000000000000000000000000000000000000000000000006001600160a01b0316ff5b634e487b7160e01b600052601160045260246000fd5b600082821015610517576105176104ef565b500390565b6000816000190483118215151615610536576105366104ef565b50029056fea26469706673582212206d124d230a372dbe060b634fd457a8184ef85d49c5e4f6b9ee568e9f3990487d64736f6c634300080e0033",
    "sourcePath": "/Users/abrilzucchi/abru-projects/dutch-auction-ripio/contracts/DutchAuction.sol",
    "compiler": {
        "name": "solc",
        "version": "0.8.14+commit.80d49f37"
    },
    "functionHashes": {
        "buy()": "a6f2ae3a",
        "discountRate()": "e6c0e6d5",
        "expiresAt()": "8622a689",
        "getPrice()": "98d5fdca",
        "nft()": "47ccca02",
        "nftId()": "c6bc5182",
        "seller()": "08551a53",
        "startAt()": "c7446565",
        "startingPrice()": "d6fbf202"
    },
    "gasEstimates": {
        "creation": {
            "codeDepositCost": "278600",
            "executionCost": "infinite",
            "totalCost": "infinite"
        },
        "external": {
            "buy()": "infinite",
            "discountRate()": "infinite",
            "expiresAt()": "infinite",
            "getPrice()": "infinite",
            "nft()": "infinite",
            "nftId()": "infinite",
            "seller()": "infinite",
            "startAt()": "infinite",
            "startingPrice()": "infinite"
        }
    }
}